:020000040802F0
:10000000F8040020AD010208B11C0208A115020885
:10001000AD1C0208B90202086123020800000000BA
:10002000000000000000000000000000191E02088F
:10003000BD02020800000000B51C02081B1E0208D9
:10004000C7010208C7010208C7010208C701020868
:10005000C7010208C7010208C7010208C701020858
:10006000C7010208C7010208C7010208C701020848
:10007000C7010208C7010208C7010208C701020838
:10008000C7010208C7010208C701020800000000FA
:10009000000000000000000000000000C70102088E
:1000A000C7010208C7010208C7010208C701020808
:1000B000C7010208C7010208C7010208C7010208F8
:1000C000C7010208C7010208C7010208C7010208E8
:1000D000C7010208C7010208C701020800000000AA
:1000E000C7010208C7010208C7010208000000009A
:1000F000000000000000000000000000C70102082E
:1001000000000000C7010208C7010208C701020879
:1001100000000000000000000000000000000000DF
:10012000C7010208C7010208C7010208C701020887
:10013000C7010208000000000000000000000000ED
:10014000000000000000000000000000C7010208DD
:10015000C7010208C7010208C7010208C701020857
:10016000C7010208C70102080000000000000000EB
:10017000000000000000000000000000000000007F
:1001800000000000C701020800000000000000009D
:10019000C7010208C7010208DFF80CD000F07AF8A6
:1001A00000480047B9240208F804002006488047A8
:1001B00006480047FEE7FEE7FEE7FEE7FEE7FEE74C
:1001C000FEE7FEE7FEE7FEE7D91E020899010208F6
:1001D0002DE9F05F0546002092469B46884606467C
:1001E000814640241BE0284641464746224600F00F
:1001F00041F853465A46C01A914110D31146184649
:10020000224600F028F82D1A67EB01084F462246D7
:100210000120002100F01FF817EB00094E41201EBD
:10022000A4F10104DFDC484631462A464346BDE8D6
:10023000F09FD2B201E000F8012B491EFBD27047BB
:100240000022F6E710B513460A4604461946FFF7A2
:10025000F0FF204610BD202A04DB203A00FA02F10C
:10026000002070479140C2F1200320FA03F31943A4
:1002700090407047202A04DB203A21FA02F0002146
:10028000704721FA02F3D040C2F1200291400843A6
:1002900019467047064C074D06E0E06840F0010340
:1002A00094E8070098471034AC42F6D3FFF778FF84
:1002B000E05E0208005F020800BFFEE7704772B60A
:1002C00000BFFEE7F8B502460B46002500240020DB
:1002D0000021C7E0012606FA01F51E6806EA0504BA
:1002E000AC4274D11E7906F00306012E04D01E79AB
:1002F00006F00306022E13D190684F000326BE407D
:10030000B0434F00DE68BE40304390605068012625
:100310008E40B0431E79C6F300168E4030435060C5
:100320001E7906F00306032E09D0D0684F0003267D
:10033000BE40B0434F009E68BE403043D0601E793F
:1003400006F00306022E13D1CF0802F1200656F85C
:1003500027004E07F70E0F26BE40B0434F07FF0E93
:100360001E69BE403043CF0802F1200646F8270040
:1003700010684F000326BE40B0431E7906F0030606
:100380004F00BE40304310605E6806F44036002ED9
:1003900067D000BF00260096344E366846F480468B
:1003A000324F3E603E46366806F48046009600BFF7
:1003B00000BF2F4E8F0856F827008E07370F0F26E5
:1003C000BE40B0432B4EB24202D1002615E048E0B9
:1003D000294EB24201D101260FE0284EB24201D18E
:1003E00002260AE0264EB24201D1032605E0254E40
:1003F000B24201D1042600E007268F073F0FBE401E
:1004000030431B4E8F0846F827001F4E3068A0432C
:100410005E6806F4801606B120431B4E3060361D20
:100420003068A0435E6806F4001606B12043164EFD
:10043000361D3060144E361F3068A0435E6806F4E7
:10044000003606B12043104E361F3060361F30682C
:10045000A0435E6806F4803606B120430A4E083E8B
:100460003060491C1029FFF435AFF8BD4438024014
:100470000838014000000240000402400008024029
:10048000000C024000100240083C01400AB18161AA
:1004900001E00B0483617047014800687047000069
:1004A0000000002003480068034909780844014916
:1004B00008607047000000200800002010B50D48BB
:1004C000006840F400700B4908600846006840F47A
:1004D000806008600846006840F48070086003206F
:1004E00000F0A6F80F2000F007F800F02BF800202D
:1004F00010BD0000003C024070B504460E48007874
:100500004FF47A71B1FBF0F00C490968B1FBF0F5DA
:10051000284600F0E6FD08B1012070BD102C07D27E
:1005200000222146501E00F045F80548046001E015
:100530000120F2E70020F0E7080000200C00002076
:100540000400002008B500BF002000900E4800689D
:1005500040F480400C4908600846006800F4804080
:10056000009000BF00BF00BF00200090081F00687F
:1005700040F08050091F08600846006800F0805075
:10058000009000BF00BF08BD443802400146084645
:1005900000280DDB00BF00BF00F01F0301229A40BE
:1005A00043099B0003F1E023C3F8002100BF00BF13
:1005B00000BF70472DE9F05F80460D4616460027C4
:1005C00001F00AFF074639462A46334601F0070084
:1005D000C0F1070ABAF1040F02D94FF0040A01E092
:1005E000C0F1070AD14600F1040ABAF1070F02D29E
:1005F0004FF0000A01E0A0F1030AD4464FF0010ACF
:100600000AFA09FAAAF1010A0AEA020A0AFA0CFA33
:100610004FF0010B0BFA0CFBABF1010B0BEA030BD8
:100620004AEA0B042146404601F0DEFEBDE8F09F99
:1006300000BF00F00702064B19684FF6FF03194090
:10064000044B0B4343EA0221014B196000BF704782
:100650000CED00E00000FA0508B50020034908622F
:1006600003480068009000BF08BD000000000E4273
:100670000070004008B50120034908620348006883
:10068000009000BF08BD000000000E420070004056
:1006900070B504460D460CB9012070BD584800687D
:1006A00000F00700A84209D255490D7008460068BD
:1006B00000F00700A84201D00120EEE7207800F00A
:1006C000020002281DD1207800F00400042805D182
:1006D0004C48006840F4E0504A490860207800F037
:1006E0000800082805D14748006840F460404549A3
:1006F00008604448006820F0F000A16808434149C0
:100700000860207800F00100A8B36068012807D1D4
:100710003C4808380068C0F34040B8B90120BCE745
:100720006068022802D06068032807D1354808387D
:100730000068C0F3406048B90120AEE7314808388E
:100740000068C0F3400008B90120A6E72D48006802
:1007500020F00300616808432A490860FFF79CFE07
:10076000064609E0FFF798FE801B41F28831884277
:1007700002D9032091E707E02248006800F00C004E
:100780006168B0EB810FEDD11D48006800F00700F3
:10079000A84209D91A490D700846006800F0070000
:1007A000A84201D0012078E7207800F00400042856
:1007B00007D11448006820F4E050E168084311496B
:1007C0000860207800F00800082808D10D4800686B
:1007D00020F46040216940EAC1000A49086000F045
:1007E0003FF808490968C1F30311074A515CC84042
:1007F0000649086006480068FFF77EFE00204CE7C7
:10080000003C024008380240AC2502080C000020E1
:100810000400002001480068704700000C00002020
:1008200000B5FFF7F7FF04490968C1F38221034AC5
:10083000515CC84000BD000008380240BC250208D9
:1008400000B5FFF7E7FF04490968C1F34231034AE5
:10085000515CC84000BD000008380240BC250208B9
:100860002DE9F047002400250026A1462548006810
:1008700000F00C0020B1042805D008283AD105E08A
:10088000DFF8849039E0DFF8849036E01D48001FDF
:10089000006800F03F041B48001F006800F480005F
:1008A00078B11A481749091F0968C1F38811A0FBDC
:1008B00001700146224600233846FFF789FC0546B1
:1008C0000EE011480F49091F0968C1F38811A0FB08
:1008D00001700146224600233846FFF779FC0546A1
:1008E0000848001F0068C0F30140401C4600B5FBEB
:1008F000F6F902E0DFF8109000BF00BF4846BDE8FF
:10090000F0870000083802400024F40040787D01A0
:10091000F8B504460CB90120F8BD207800F00100BC
:10092000002874D0F948006800F00C0004280DD0AD
:10093000F648006800F00C00082813D1F348001FA7
:10094000006800F48000B0F5800F0BD1EF48083844
:100950000068C0F34040002859D06068002856D194
:100960000120D9E700BF6068B0F5803F08D1E748B3
:100970000838006840F48030E449083908601EE017
:100980006068B0F5A02F0DD1E0480838006840F449
:100990008020DE49083908600846006840F480304D
:1009A00008600CE0D9480838006820F48030D74946
:1009B000083908600846006820F48020086000BFFD
:1009C000606890B1FFF768FD054606E0FFF764FD3B
:1009D000401B642801D903209EE7CC4808380068F2
:1009E000C0F340400028F1D011E0FFF755FD054667
:1009F00006E0FFF751FD401B642801D903208BE777
:100A0000C24808380068C0F340400028F1D120787F
:100A100000F0020002285FD1BC48006800F00C0022
:100A200058B1BA48006800F00C0008281CD1B7483B
:100A3000001F006800F48000B0B9B44808380068AE
:100A4000C0F3400020B1E068012801D0012063E735
:100A5000AE480838006820F0F800216940EAC1007B
:100A6000AA490839086037E0E06800B30120A849C6
:100A70000860FFF711FD054606E0FFF70DFD401B7E
:100A8000022801D9032047E7A04808380068C0F3CE
:100A900040000028F1D09D480838006820F0F80098
:100AA000216940EAC10099490839086014E0002032
:100AB00097490860FFF7F0FC054606E0FFF7ECFCFD
:100AC000401B022801D9032026E790480838006817
:100AD000C0F340000028F1D1207800F00800082879
:100AE0002CD16069A8B101208A490860FFF7D4FCC5
:100AF000054606E0FFF7D0FC401B022801D9032081
:100B00000AE782486C300068C0F340000028F1D04A
:100B100014E000207F490860FFF7BEFC054606E0B0
:100B2000FFF7BAFC401B022801D90320F4E67748FE
:100B30006C300068C0F340000028F1D1207800F04C
:100B40000400042870D1002770483830006800F095
:100B5000805090B900BF002000906C483830006889
:100B600040F080506949383108600846006800F05C
:100B70008050009000BF00BF01276748006800F464
:100B80008070B0B96448006840F4807062490860C1
:100B9000FFF782FC054606E0FFF77EFC401B0228BB
:100BA00001D90320B8E65C48006800F48070002892
:100BB000F2D000BFA068012808D15448683000680E
:100BC00040F001005149683108601DE0A068052827
:100BD0000DD14E486830006840F004004B49683140
:100BE00008600846006840F0010008600CE04748D3
:100BF0006830006820F00100444968310860084608
:100C0000006820F00400086000BFA068A8B1FFF7EA
:100C100043FC054609E0FFF73FFC401B41F28831E9
:100C2000884202D9032077E626E038486830006819
:100C3000C0F340000028EED013E0FFF72DFC05467E
:100C400008E0FFF729FC401B41F28831884201D9B6
:100C5000032061E62D4868300068C0F3400000289A
:100C6000EFD1012F07D129483830006820F080509B
:100C700026493831086000BFA069002845D02348C4
:100C8000006800F00C0008285DD0A069022845D15A
:100C900000201F490866FFF7FFFB054606E0FFF747
:100CA000FBFB401B022801D9032035E61748083812
:100CB0000068C0F340600028F1D1D4E9070108437F
:100CC000616A40EA81110122A06AC2EB500041EA48
:100CD00000412C20005D41EA00600C49091F0860BA
:100CE00001200B490866FFF7D7FB054606E0FFF732
:100CF000D3FB401B022801D903200DE60348083826
:100D00000068C0F340600028F1D049E00838024094
:100D100000004742800E47420070004000202149F9
:100D20000866FFF7B9FB054606E0FFF7B5FB401B79
:100D3000022801D90320EFE51B480068C0F340609A
:100D40000028F2D12CE0A069012800D1E4E5164882
:100D5000001D0668A069012820D006F48001E06922
:100D600081421BD106F03F01206A814216D147F62D
:100D7000C0703040616AB0EB811F0FD106F4403182
:100D80000122A06AC2EB5000B1EB004F06D106F081
:100D900070612C20005DB1EB006F01D00120BBE53C
:100DA0000020B9E5000047420038024010B5044673
:100DB0000CB9012010BD606A38B96068B0F5827F57
:100DC00000D105E00021E16102E0002121616161C3
:100DD0000021A16294F8510028B9002084F8500045
:100DE000204600F047F8022084F85100206800688F
:100DF00020F0400021680860A08800F482702189FA
:100E000001F404410843A18901F400610843217CF5
:100E100001F002010843217D01F001010843218B0B
:100E200001F400710843217F01F0380108432021BB
:100E3000095D01F080010843218D01F40051084350
:100E4000216808600421A06901EA104094F8241088
:100E500001F010010843216848602068C06920F44F
:100E600000602168C86100206065012084F851009D
:100E700000209FE710B586B00446142101A8FFF7B3
:100E8000DFF91B49206888422FD100BF0020009065
:100E90001848006840F48050164908600846006809
:100EA00000F48050009000BF00BF00BF0020009001
:100EB00010481438006840F002000E4914390860E8
:100EC0000846006800F00200009000BF00BF282024
:100ED000019002200290002003900320049005203E
:100EE000059001A90448FFF7EDF906B010BD000018
:100EF0000030014044380240000402402DE9F8432C
:100F000004460F4616461D46FFF7C6FA8046B14610
:100F100094F85100012802D00220BDE8F88307B1FF
:100F20000EB90120F9E700BF94F85000012801D163
:100F30000220F2E7012084F8500000BF032084F86B
:100F40005100002060652763A686E686A063A0871F
:100F5000E08760642064A068B0F5004F0BD1206882
:100F6000006820F04000216808602068006840F4B4
:100F70008040216808602068006800F04000402838
:100F800005D02068006840F0400021680860E068F3
:100F9000B0F5006F37D1606810B1B9F1010F09D118
:100FA000206B00882168C860206B801C2063E08E65
:100FB000401EE08623E02068806800F002000228DE
:100FC0000AD1206B00882168C860206B801C2063D8
:100FD000E08E401EE08612E0FFF75EFAA0EB08000C
:100FE000A84201D3681C00B94DB9012084F8510012
:100FF00000BF002084F8500000BF03208DE7E08E82
:101000000028D8D136E0606810B1B9F1010F09D1DC
:10101000206B007821680873206B401C2063E08EF1
:10102000401EE08623E02068806800F0020002286D
:101030000AD1206B007821680873206B401C206364
:10104000E08E401EE08612E0FFF726FAA0EB0800D3
:10105000A84201D3681C00B94DB9012084F85100A1
:1010600000BF002084F8500000BF032055E7E08E49
:101070000028D8D142462946204600F01DFE08B17E
:1010800020206065A06850B900BF00200090206853
:10109000C068009020688068009000BF00BF0120F9
:1010A00084F8510000BF002084F8500000BF606D3C
:1010B00008B1012031E700202FE7042808D14FF0C4
:1010C000E021096941F004014FF0E022116107E0DD
:1010D0004FF0E021096921F004014FF0E022116195
:1010E000704770B504462546681EB0F1807F01D375
:1010F00001200FE0681E4FF0E02148610F214FF002
:10110000FF3001F071F900204FF0E02188610720E5
:101110000861002070BD000030B502460B4600BFDC
:1011200092F83C00012801D1022030BD012082F854
:101130003C0000BF022082F83D001068446810683F
:10114000816824F070041868044310684460144DEA
:101150001068A84213D01068B0F1804F0FD0114D25
:101160001068A8420BD0104D1068A84207D00F4D50
:101170001068A84203D00E4D1068A84205D121F096
:1011800080015868014310688160012082F83D00A9
:1011900000BF002082F83C0000BF00BFC5E7000090
:1011A000000001400004004000080040000C004026
:1011B0000040014010B586B00446142101A8FFF795
:1011C0003FF81149206888421CD100BF00200090E0
:1011D0000E48006840F002000C49086008460068AC
:1011E00000F00200009000BF00BF0120019002202B
:1011F00002900020039004900220059001A9044869
:10120000FFF760F806B010BD00040040303802401F
:10121000000402402DE9F04104460D461646002721
:1012200000BF94F83C00012802D10220BDE8F08103
:10123000012084F83C0000BF36B1042E1BD0082EDC
:1012400031D00C2E5ED145E02946206800F0B6FE74
:101250002068806940F00800216888612068806902
:1012600020F00400216888612068806929690843AA
:101270002168886148E02946206800F0CFFE206898
:10128000806940F40060216888612068806920F4EA
:1012900080602168886120688069296940EA0120AE
:1012A0002168886130E02946206800F0EBFE206864
:1012B000C06940F008002168C8612068C06920F05A
:1012C00004002168C8612068C06929690843216851
:1012D000C86119E02946206800F008FF2068C0694D
:1012E00040F400602168C8612068C06920F4806013
:1012F0002168C8612068C069296940EA0120216825
:10130000C86101E0012700BF00BF00BF002084F8D2
:101310003C0000BF384689E710B504460CB90120EF
:1013200010BD94F83D0028B9002084F83C00204608
:1013300000F026F8022084F83D00211D206800F00E
:10134000D5FD012084F8460000BF84F83E0001214D
:101350003F200155402001554120015500BF00BFED
:10136000012084F8420043200155442001554520C6
:10137000015500BF012084F83D000020D0E70000A7
:1013800008B50A4A016891420FD100BF00210091BF
:101390000749096841F00201054A116011460968D0
:1013A00001F00201009100BF00BF08BD0004004031
:1013B0004038024070B504460D4615B994F83E0019
:1013C0000BE0042D02D13F20005D06E0082D02D184
:1013D0004020005D01E04120005D012801D0012096
:1013E00070BD1DB9022084F83E000EE0042D03D12B
:1013F00002213F20015508E0082D03D102214020A1
:10140000015502E0022141200155012229462068B0
:1014100000F0C2FD1D492068884201D1012000E092
:10142000002028B12068406C40F4004021684864E6
:1014300016492068884213D02068B0F1804F0FD041
:101440001349206888420BD012492068884207D08F
:1014500011492068884203D01049206888420CD185
:101460002068806800F00706062E0CD0206800680F
:1014700040F001002168086005E02068006840F045
:101480000100216808600020AAE700000000014078
:101490000004004000080040000C004000400140F3
:1014A00010B504460CB9012010BDA06900B100E0E0
:1014B00000BF94F8410028B9002084F8400020467D
:1014C00000F02AF8242084F841002068C06820F445
:1014D00000502168C860204600F02CFE206800699A
:1014E00020F49040216808612068406920F02A00BB
:1014F000216848612068C06840F400502168C860D5
:1015000000206064202084F8410084F8420000201C
:10151000606300BFC8E7000010B586B00446142120
:1015200001A8FEF78DFE1B492068884230D100BF1C
:10153000002000901848006840F01000164908602C
:101540000846006800F01000009000BF00BF00BF18
:101550000020009010481438006840F001000E4947
:10156000143908600846006800F00100009000BFD0
:1015700000BF4FF4C0600190022002900020039051
:10158000032004900720059001A90448FEF79AFE65
:1015900006B010BD00100140443802400000024077
:1015A00000BFFEE710B5012211020248FEF76EFFF0
:1015B00010BD00000000024000B587B0142102A851
:1015C000FEF73EFE00BF002001901048006840F08A
:1015D00001000E4908600846006800F00100019013
:1015E00000BF00BF002289150948FEF74FFF4FF4E6
:1015F000807002900120039004900020059002A9C1
:101600000348FEF75FFE07B000BD0000303802401F
:101610000000024000B587B0142102A8FEF710FEBA
:1016200000BF002001901A48006840F001001849EE
:1016300008600846006800F00100019000BF00BF8C
:10164000202002904FF4041003900120049002A97E
:101650001048FEF737FE102002904FF488100390D8
:101660000020049002A90B48FEF72CFE0022052161
:101670001720FEF79FFF1720FEF788FF00220521A5
:101680000A20FEF797FF0A20FEF780FF07B000BD93
:1016900030380240000002402DE9F04107460C4678
:1016A00015461E462A2000F043FA384600F028FA74
:1016B000284600F025FA2B2000F03AFA204600F0E8
:1016C0001FFA304600F01CFA2C2000F031FABDE879
:1016D000F08170B504460D4616462B462246294633
:1016E0002046FFF7D9FF304600F00AFA70BD2DE919
:1016F000F04707460C4615461E46DDF820A006F1C9
:10170000130083B2681E82B204F1140081B238461D
:10171000FFF7C2FFA0460EE0B94606E0504600F0D3
:10172000EFF909F101001FFA80F9A945F6DB08F18C
:1017300001001FFA80F8B045EEDBBDE8F08700003D
:1017400000B587B0142102A8FEF77AFD00BF002083
:1017500001901048006840F002000E4908600846F9
:10176000006800F00200019000BF00BF4FF46070FD
:101770000290012003900320059002A90648FEF77D
:10178000A1FD01224FF460710348FEF77FFE07B010
:1017900000BD0000303802400004024010B5FFF7E1
:1017A000CFFF00224FF480716548FEF76FFE0022E4
:1017B00080216348FEF76AFE642000F04FFE01229C
:1017C00080215F48FEF762FE642000F047FE112092
:1017D00000F0AEF9782000F041FE362000F0A8F9C4
:1017E000002000F09FF93A2000F0A2F9052000F057
:1017F00099F9B22000F09CF90C2000F093F90C202C
:1018000000F090F9002000F08DF9332000F08AF903
:10181000332000F087F9B72000F08AF9352000F076
:1018200081F9BB2000F084F9192000F07BF9C02079
:1018300000F07EF92C2000F075F9C22000F078F954
:10184000012000F06FF9C32000F072F9122000F0BF
:1018500069F9C42000F06CF9202000F063F9C6207B
:1018600000F066F90F2000F05DF9D02000F060F97B
:10187000A42000F057F9A12000F054F9E02000F076
:1018800057F9D02000F04EF9042000F04BF90D205C
:1018900000F048F9112000F045F9132000F042F95A
:1018A0002B2000F03FF93F2000F03CF9542000F0DD
:1018B00039F94C2000F036F9182000F033F90D20EA
:1018C00000F030F90B2000F02DF91F2000F02AF96C
:1018D000232000F027F9E12000F02AF9D02000F0C1
:1018E00021F9042000F01EF90C2000F01BF9112052
:1018F00000F018F9132000F015F92C2000F012F96F
:101900003F2000F00FF9442000F00CF9512000F0C6
:1019100009F92F2000F006F91F2000F003F91F201D
:1019200000F000F9202000F0FDF8232000F0FAF884
:10193000212000F0FDF8292000F0FAF810BD000089
:101940000004024005280ADB642808DC4FF4967185
:101950004143642291FBF2F1014A1268D16370475E
:10196000680000202DE9FF5F80468A4617469B46A7
:101970000F9D00200290CDF80080284605EBD07125
:10198000C1F347042046E21704EB5272D2102146FD
:10199000E31704EB5373DB10A4EBC3030BB1012378
:1019A00000E000231A446A4392B20192A7F120009A
:1019B000C7B20AEB0500401E83B208EB0400401ECC
:1019C00082B251464046FFF767FE002669E00C2DC3
:1019D00007D107EB4700354901EB8000805D03909C
:1019E0001BE0102D05D1324800EB0710805D0390FD
:1019F00013E0182D07D107EB47002E4901EB00102B
:101A0000805D039009E0202D05D12B4800EB871065
:101A1000805D039001E0BDE8FF9F4FF000093AE0D0
:101A20001098C8B9012000FA09F00399084018B1CC
:101A3000584600F065F802E00E9800F061F8029850
:101A4000401CC0B20290029890FBF4F104FB11001C
:101A5000E8B90020029021E0012000FA09F0039982
:101A6000084020B15A4651464046FFF732FE08F181
:101A700001001FFA80F80098A8EB0000A04206D1F0
:101A8000DDF800800AF101001FFA80FA06E009F192
:101A9000010000F0FF09B9F1080FC1DB00BF701CA5
:101AA00086B20198864292DB00BFB4E7C4250208E3
:101AB000382A020828300208F84102082DE9FE4FB2
:101AC00006460F4614469846DDE90D5ADDF830907B
:101AD00010E0CDE9015ACDF800902278434639460E
:101AE0003046FFF73FFF284605EBD07106EB61015A
:101AF0008EB2641C20780028EBD1BDE8FE8F000078
:101B000038B50446200A8DF80000E0B28DF80100D7
:101B10000123022269460248FFF7F0F938BD0000B0
:101B20001000002010B50446204600F015F810BD46
:101B300010B5044600224FF400710648FEF7A6FCDB
:101B4000204600F009F8012251020248FEF79EFCEF
:101B500010BD00000004024001B501231A46694689
:101B60000148FFF7CBF908BD1000002008B500BF01
:101B7000002000900E48006840F002000C49086008
:101B80000846006800F00200009000BF00BF00BFE0
:101B9000002000900846006840F0010008600846F8
:101BA000006800F00100009000BF00BF08BD000009
:101BB0003038024010B50E480E4908604FF482706C
:101BC000486000210B488160C160016141614FF4B0
:101BD000007181610021C1610162416281620A215B
:101BE000C162FFF7E3F808B1FEF769FB10BD000022
:101BF000003001401000002000B589B0002007909F
:101C000008901C216846FEF71BFB1848184908601D
:101C10006320486000211648816040F22B11C160AA
:101C2000002101618161FFF777FB08B1FEF747FBF7
:101C300000200790089007A90D48FFF76DFA08B13A
:101C4000FEF73DFB60200090002001900290049080
:101C5000082269460648FFF7DDFA08B1FEF72FFBB8
:101C60000348FFF7A7FA09B000BD000000040040D8
:101C70006800002010B50B480B4908604FF4E130B4
:101C80004860002108488160C16001610C21416108
:101C900000218161C161FFF703FC08B1FEF70FFB72
:101CA00010BD000000100140B000002000BFFEE7A2
:101CB00000BFFEE7704700007CB504460E4615469F
:101CC0003346012202212046009500F039F828B160
:101CD000606D40F02000606503207CBD1648006800
:101CE0001821B0FBF1F01549B0FBF1F04FF47A7117
:101CF000484301906068B0F5827F0DD133460022E1
:101D000080212046009500F01BF898B1606D40F0EE
:101D1000200060650320E0E700BF019800B908E0FB
:101D20000198401E019020688068C0F3C010002810
:101D3000F3D100BF0020D0E70C00002040420F008C
:101D40002DE9F84F04460D4690461E46DDF82890D2
:101D5000FEF7A2FBA0EB0900371AFEF79DFB8246B7
:101D60002C480068C0F3CB307843009046E0701CEC
:101D7000002843D0FEF790FBA0EB0A00B84200D247
:101D8000A7BB2068406820F0E000216848606068D8
:101D9000B0F5827F0DD1A068B0F5004F03D0A068E8
:101DA000B0F5806F05D12068006820F04000216800
:101DB0000860A06AB0F5005F0DD100BF2068006820
:101DC00020F40050216808602068006840F400504A
:101DD0002168086000BF012084F8510000BF002086
:101DE00084F8500000BF0320BDE8F88FFFE700989B
:101DF00008B9002702E00098401E00902068806823
:101E00002840A84201D1012000E000204045AED189
:101E10000020E9E70C000020704710B5FEF742FBF8
:101E200010BD000000B593B0302107A8FEF708FAF6
:101E3000142102A8FEF704FA00BF002001902448F4
:101E4000006840F08050224908600846006800F0B1
:101E50008050019000BF00BF00BF002001901D48CE
:101E6000006840F440401B4908600846006800F4E0
:101E70004040019000BF00BF0220079001200A905F
:101E800010200B9002200D9000210E9108210F913F
:101E900064211091022111910421129107A8FEF7EB
:101EA00037FD08B1FEF70BFA0F20029002200390D5
:101EB000002004904FF480500590002006900321EC
:101EC00002A8FEF7E5FB08B1FEF7F9F913B000BD73
:101ED00040380240007000400348006840F4700041
:101EE000014908607047000088ED00E010B5026805
:101EF000224B98420BD0B0F1804F08D0204B984233
:101F000005D0204B984202D01F4B984203D122F0BB
:101F100070024B681A43194B984214D0B0F1804FAD
:101F200011D0174B98420ED0164B98420BD0164B3F
:101F3000984208D0154B984205D0154B984202D0D4
:101F4000144B984203D122F44072CB681A4322F01A
:101F500080034C6943EA04028B68C3620B688362A6
:101F6000064B984201D10B690363036843F00403F5
:101F7000036001234361026010BD000000000140C6
:101F80000004004000080040000C004000400140F8
:101F9000004401400048014030B501F01F05012414
:101FA00004FA05F3046A9C430462046A01F01F0505
:101FB00002FA05F52C43046230BD000030B5026A18
:101FC000056A25F0010505624368846924F0700400
:101FD00024F003040D682C4322F002028D682A438A
:101FE0000D4DA84206D100BF22F00802CD682A4359
:101FF00022F00402084DA84207D123F4807323F491
:1020000000734D692B438D692B43436084614D6898
:102010004563026230BD00000000014030B5026A35
:10202000056A25F0100505624368846924F4E044DC
:1020300024F440740D6844EA052422F020028D68DF
:1020400042EA05120E4DA84207D100BF22F08002DD
:10205000CD6842EA051222F04002094DA84209D19A
:1020600023F4806323F400634D6943EA85038D699B
:1020700043EA8503436084614D688563026230BD35
:102080000000014030B5026A056A25F480750562DA
:102090004368C46924F0700424F003040D682C43E1
:1020A00022F400728D6842EA05220F4DA84207D142
:1020B00000BF22F40062CD6842EA052222F4806269
:1020C000094DA84209D123F4805323F400534D69EC
:1020D00043EA05138D6943EA05134360C4614D6803
:1020E000C563026230BD00000000014030B5036AE4
:1020F000056A25F4805505624468C26922F4E0420D
:1021000022F440720D6842EA052223F400538D68E0
:1021100043EA0533064DA84204D124F480444D69B6
:1021200044EA85144460C2614D680564036230BDB1
:10213000000001402DE9F84F04462068006920F4B2
:102140004050E1680843216808612169A06808439C
:1021500061690843E169084300902068C06849F25A
:102160000C618843009908432168C8602068406971
:1021700020F44070A16908432168486176492068CD
:10218000884203D075492068884203D1FEF758FB86
:10219000814602E0FEF744FB8146E069B0F5004F5E
:1021A0006CD102206168A0FB015003461920A9FBF5
:1021B000007001462A463846FEF70AF86421B0FB53
:1021C000F1F04FEA001A02206168A0FB01510B46B2
:1021D0001920A9FB00712A463846FDF7F9FF83460E
:1021E00002206168A0FB015003461920A9FB007181
:1021F0002A463846FDF7ECFF6421B0FBF1F000EB16
:10220000C00101EB0010ABEB8000322101EBC000FC
:102210006421B0FBF1F000F0F8000AEB400A022064
:102220006168A0FB015003461920A9FB007001461C
:102230002A463846FDF7CCFF834602206168A0FBA2
:10224000015003461920A9FB00712A463846FDF7C4
:10225000BFFF6421B0FBF1F000EBC00101EB001007
:10226000ABEB8000322101EBC0006421B0FBF1F048
:1022700000F007005044216888606AE0042061682B
:10228000A0FB015003461920A9FB007001462A4615
:102290003846FDF79DFF824604206168A0FB01508F
:1022A00003461920A9FB007001462A463846FDF76F
:1022B0008FFF6421B0FBF1F000EBC00101EB0010D7
:1022C000AAEB8000322101EB00106421B0FBF1F099
:1022D00000F0F00A04206168A0FB01700346192099
:1022E000A9FB00513A462846FDF772FF6421B0FB76
:1022F000F1F00AEB001A04206168A0FB01510B46C3
:102300001920A9FB00712A463846FDF761FF834674
:1023100004206168A0FB015003461920A9FB00704E
:1023200001462A463846FDF753FF6421B0FBF1F021
:1023300000EBC00101EB0010ABEB8000322101EBA0
:1023400000106421B0FBF1F000F00F005044216850
:102350008860BDE8F88F00000010014000140140C3
:1023600000BFFEE710B5012202210248FEF78EF8F9
:1023700010BD00000004024000B587B0142102A87F
:10238000FDF75EFF00BF002001901148006840F09B
:1023900002000F4908600846006800F00200019042
:1023A00000BF00BF02200290012003900490002093
:1023B000059002A90748FDF785FF0420029002203E
:1023C000059002A90348FDF77DFF07B000BD00009E
:1023D000303802400004024002480068C0F3022086
:1023E000704700000CED00E010B5002804DB0A0780
:1023F000130E054A135406E00A07140E034A00F0B0
:102400000F031B1FD45410BD00E400E018ED00E0E2
:1024100002E008C8121F08C1002AFAD170477047AD
:10242000002001E001C1121F002AFBD1704700000B
:1024300010B50420FEF741FE064800784FF47A718B
:10244000B1FBF0F004490968B1FBF0F42046FEF757
:1024500048FE10BD080000200C00002030B50446E6
:10246000002504E04FF47A7000F004F86D1CA542DA
:10247000F8D330BD70B5034600224FF0E0267569F1
:10248000642603FB06F44FF0E026B16910E04FF03C
:10249000E026B06988420BD0884202D20E1A32443C
:1024A00002E02E1A0E4432440146A24200D300E05C
:1024B000EDE700BF70BD00000EB530483049086040
:1024C00000BF002002902F48006840F080502D4946
:1024D00008600846006800F08050029000BF00BF0E
:1024E000FEF7C8F8002028490860FEF7B5F8FDF7A8
:1024F000E5FFFFF797FCFFF739FBFFF75BFBFFF703
:102500007BFBFFF7B7FBFFF793FFFFF783F8FFF7BE
:1025100053F8FFF747F8FFF72FFFFFF723FF0821D6
:102520001A48FEF747FFFFF739F900204FF48C7384
:10253000F02201460090FFF7DAF80A20FFF78EFF3D
:102540003220FFF7FFF900201821CDE900014FF6F6
:10255000FF730FA28C2102900E20FFF7AFFA00202C
:102560001821CDE900014FF6FF730EA2BC210290A5
:102570006420FFF7A3FA00BFFEE700000000020896
:1025800008ED00E04038024050280040680000207C
:1025900057656C636F6D6520544F20736963687570
:1025A000616E2100425445535400000000000000B9
:1025B00000000000010203040607080900000000F3
:1025C0000102030400000000000000000000000001
:1025D00000000404040404000004000014140A00B1
:1025E000000000000000000000000A0A1F0A0A1F85
:1025F0000A0A000000040E1505060C14150E04004E
:10260000000012150D152E2C2A1200000000040ADD
:102610000A3615152916000002020100000000000C
:102620000000000010080804040404040808100056
:10263000020404080808080804040200000000045A
:10264000150E0E150400000000000008083E0808E2
:102650000000000000000000000000000202010075
:1026600000000000003F000000000000000000002B
:102670000000000000020000002010100808040400
:102680000202010000000E1111111111110E0000C3
:102690000000040604040404040E000000000E11EF
:1026A00011080402011F000000000E11100C101090
:1026B000110E00000000080C0C0A091F081C000085
:1026C00000001F01010F1110110E000000000C127C
:1026D000010D1311110E000000001E100808040463
:1026E0000404000000000E11110E1111110E000063
:1026F00000000E111119161009060000000000005C
:1027000004000000000400000000000000040000BD
:102710000004040000001008040202040810000075
:10272000000000003F003F00000000000000020425
:10273000081010080402000000000E111108040423
:102740000004000000001C22292D2D1D221C000069
:10275000000004040C0A0A1E1233000000000F12CD
:10276000120E1212120F000000001E1101010101D1
:10277000110E000000000F1212121212120F0000B0
:1027800000001F120A0E0A02121F000000001F1292
:102790000A0E0A020207000000001C120101391192
:1027A000120C000000003312121E1212123300002D
:1027B00000001F0404040404041F000000003E087D
:1027C0000808080808080907000037120A060A1254
:1027D000123700000000070202020202223F00003E
:1027E00000003B1B1B1B15151535000000003B129C
:1027F00016161A1A1217000000000E1111111111ED
:10280000110E000000000F12120E0202020700005B
:1028100000000E1111111117190E180000000F12EF
:10282000120E0A121237000000001E1101060810D5
:10283000110F000000001F1504040404040E000022
:102840000000331212121212120C00000000331298
:10285000120A0A0C040400000000151515150E0AD2
:102860000A0A000000001B0A0A04040A0A1B0000EE
:1028700000001B0A0A0A0404040E000000001F09DD
:1028800008040402121F00001C04040404040404CD
:1028900004041C00000202040404080808101000CC
:1028A0000E0808080808080808080E00040A0000B6
:1028B0000000000000000000000000000000000018
:1028C0000000003F020400000000000000000000C3
:1028D00000000000000C121C123C00000003020269
:1028E000020E1212120E000000000000001C120264
:1028F000120C000000181010101C1212123C0000E4
:1029000000000000000C121E021C0000001824042D
:10291000041E0404041E000000000000003C120C11
:10292000021C221C00030202020E121212370000C7
:102930000004040000060404040E0000000808005F
:10294000000C08080808080700030202021A0A0619
:102950000A1300000007040404040404041F000018
:1029600000000000000F1515151500000000000004
:10297000000F12121237000000000000000C1212AB
:10298000120C000000000000000F1212120E0207CD
:1029900000000000001C1212121C10380000000081
:1029A000001B06020207000000000000001E020CCF
:1029B000101E000000000004041E0404041C00009B
:1029C00000000000001B1212123C0000000000007A
:1029D000001B0A0A04040000000000000015150E88
:1029E0000A0A000000000000001B0A040A1B000085
:1029F00000000000003312120C0804030000000065
:102A0000001E0804041E000018080808080C080826
:102A1000080818000808080808080808080808082E
:102A20000604040404080404040406001609000053
:102A30000000000000000000000000000000000096
:102A4000000000000000000000000008080808085E
:102A5000080800001818000000486C24120000004C
:102A600000000000000000000000002424247F1269
:102A700012127F12121200000000081C2A2A0A0CEF
:102A80001828282A2A1C08080000002225151515D8
:102A90002A585454542200000000000C1212120A4A
:102AA00076252911916E000000060604030000003F
:102AB000000000000000000000402010100808087E
:102AC0000808081010204000000204080810101028
:102AD00010101008080402000000000008086B1C19
:102AE0001C6B08080000000000000000080808082F
:102AF0007F08080808000000000000000000000037
:102B000000000000060604030000000000000000B2
:102B1000FE000000000000000000000000000000B7
:102B20000000000006060000000080404020201049
:102B30001008080404020200000000182442424267
:102B40004242424224180000000000080E08080813
:102B500008080808083E00000000003C42424220ED
:102B600020100804427E00000000003C4242201871
:102B700020404042221C0000000000203028242475
:102B800022227E20207800000000007E0202021A2D
:102B900026404042221C0000000000382402021A95
:102BA00026424242241800000000007E222210101B
:102BB00008080808080800000000003C42424224BF
:102BC00018244242423C00000000001824424242C5
:102BD00064584040241C0000000000000000181849
:102BE00000000000181800000000000000000008AD
:102BF0000000000000080804000000402010080445
:102C000002040810204000000000000000007F00C7
:102C100000007F00000000000000000204081020F7
:102C200040201008040200000000003C42424640E0
:102C300020101000181800000000001C225A5555E2
:102C400055552D42221C00000000000808181414DD
:102C5000243C224242E700000000001F2222221EE4
:102C600022424242221F00000000007C4242010139
:102C700001010142221C00000000001F22424242CA
:102C800042424242221F00000000003F4212121E38
:102C900012120242423F00000000003F4212121E88
:102CA00012120202020700000000003C2222010171
:102CB00001712122221C0000000000E74242424232
:102CC0007E42424242E700000000003E0808080839
:102CD00008080808083E00000000007C10101010D2
:102CE000101010101010110F0000007722120A0EA1
:102CF0000A121222227700000000000702020202DC
:102D000002020202427F00000000007736363636AB
:102D10002A2A2A2A2A6B0000000000E346464A4A73
:102D200052525262624700000000001C22414141A1
:102D300041414141221C00000000003F424242420A
:102D40003E020202020700000000001C2241414135
:102D500041414D53321C60000000003F4242423E60
:102D60001212222242C700000000007C42420204EC
:102D700018204042423E00000000007F4908080839
:102D800008080808081C0000000000E74242424210
:102D900042424242423C0000000000E742422224FC
:102DA00024141418080800000000006B4949494920
:102DB0005555362222220000000000E74224241844
:102DC0001818242442E7000000000077222214147F
:102DD00008080808081C00000000007E21201010D0
:102DE00008040442423F0000007808080808080868
:102DF000080808080808780000000202040408080F
:102E00000810102020204040001E1010101010103C
:102E10001010101010101E000038440000000000B8
:102E200000000000000000000000000000000000A2
:102E300000000000000000FF000608000000000085
:102E40000000000000000000000000000000003C46
:102E50004278444242FC0000000000030202021AD1
:102E600026424242261A00000000000000000038FE
:102E700044020202443800000000006040404078F4
:102E80004442424264D80000000000000000003CC0
:102E9000427E0202423C0000000000F08808087EEA
:102EA00008080808083E0000000000000000007C40
:102EB00022221C023C42423C000000030202023A71
:102EC0004642424242E700000000000C0C00000EA7
:102ED00008080808083E00000000003030000038F4
:102EE000202020202020221E000000030202027267
:102EF000120A1612227700000000000E08080808C7
:102F000008080808083E0000000000000000007FDC
:102F10009292929292B70000000000000000003BE5
:102F20004642424242E70000000000000000003C30
:102F300042424242423C0000000000000000001BF0
:102F400026424242221E02070000000000000078D4
:102F500044424242447840E0000000000000007714
:102F60004C040404041F0000000000000000007C6A
:102F700042023C40423E0000000000000008083EC3
:102F80000808080808300000000000000000006386
:102F90004242424262DC000000000000000000E704
:102FA000422424140808000000000000000000EB88
:102FB000494955552222000000000000000000761B
:102FC00024181818246E000000000000000000E71C
:102FD0004224241418080807000000000000007EA6
:102FE00022100808447E000000C02020202020106D
:102FF000202020202020C0001010101010101010D1
:103000001010101010101010000608080808081002
:1030100008080808080806000C32C200000000007A
:1030200000000000000000000000000000000000A0
:103030000000000000000000000000000000000090
:103040000000000000000000000000000000000080
:103050000000000000000000000000000000000070
:103060006000600060006000600060006000400080
:103070002000200020000000000000006000600030
:103080006000000000000000000000006006600614
:103090003003980188004400000000000000000098
:1030A0000000000000000000000000000000000020
:1030B0000000000000000000000000000000000010
:1030C0001002100210021002FE07FE07080208019B
:1030D000080108010801FE07FE07040104010401BC
:1030E000040100000000000000000000000040009B
:1030F0004000F00158034C03CC034C005800700012
:10310000E000C001C00140034C035C034C034801D4
:10311000F00040004000000000000000000000003F
:103120000E010A01910091009100510051003A00F6
:10313000AE03A0025004500448044804480484022A
:1031400084030000000000000000000000000000F8
:1031500038006C006C006C006C006C002C00980750
:103160001C011A01330133016301E300C308C609DE
:103170003C07000000000000000000000C001C00E4
:103180001000100008000400000000000000000013
:10319000000000000000000000000000000000002F
:1031A0000000000000000000000000000004000219
:1031B000000180008000400040002000200020002E
:1031C00020002000200020004000400080008000FF
:1031D00000010002000400000000000002000400E2
:1031E00008001000100020002000400040004000B7
:1031F000400040004000400020002000100010006F
:1032000008000400020000000000000000000000B0
:10321000000000004000C0004000460C4E0FD001EE
:10322000F0015E0F460C400040004000000000002E
:10323000000000000000000000000000000000008E
:10324000000000000000400040004000400040003E
:10325000FE0F400040004000400040000000000021
:10326000000000000000000000000000000000005E
:10327000000000000000000000000000000000004E
:103280000000000000000000000000000C001C0016
:103290001000100008000400000000000000000002
:1032A000000000000000000000000000000000001E
:1032B000FE07000000000000000000000000000009
:1032C00000000000000000000000000000000000FE
:1032D00000000000000000000000000000000000EE
:1032E0000000000000000000000000001C001C00A6
:1032F0001C000000000000000000000000040006A8
:103300000002000300010001800080004000400036
:1033100060002000200010001000080008000C00D1
:103320000400060002000000000000000000000091
:103330000000F00098010C030C03060606060606C2
:10334000060606060606060606060C030C0398018A
:10335000F00000000000000000000000000000007D
:10336000000040007C0060006000600060006000C1
:10337000600060006000600060006000600060004D
:10338000FC0300000000000000000000000000003E
:103390000000F80084010203060306030003000195
:1033A0008001C00060002000100008020402060234
:1033B000FE0300000000000000000000000000000C
:1033C00000007800C6008601860180018001C000EF
:1033D000700080010001000300030603060386015C
:1033E000F8000000000000000000000000000000E5
:1033F000000080018001C001A001A00190018801AE
:10340000880184018201FE0F80018001800180011A
:10341000E0070000000000000000000000000000C5
:103420000000FC0304000400040004000400F40095
:103430008C010403000300030603060382018401D8
:10344000F800000000000000000000000000000084
:103450000000E00118030C030C0004000600E60164
:1034600016030E0606060606060604060C021803D8
:10347000F00000000000000000000000000000005C
:103480000000F8070C06040204010001000180009E
:10349000800040004000400060006000600060006C
:1034A00060000000000000000000000000000000BC
:1034B0000000F8010C030606060606060C021C03B3
:1034C000F000C8010C0306060606060606060C03F5
:1034D000F0010000000000000000000000000000FB
:1034E0000000F0000C010C030602060606060606A4
:1034F00006078C0678060006000300030C018C0109
:103500007800000000000000000000000000000043
:10351000000000000000000000000000E000E000EB
:10352000E00000000000000000000000E000E000FB
:10353000E0000000000000000000000000000000AB
:1035400000000000000000000000000060006000BB
:10355000000000000000000000000000000060000B
:10356000600040002000200000000000000000007B
:10357000000400020001800040002000100008004C
:10358000040008001000200040008000000100023C
:103590000004000000000000000000000000000027
:1035A000000000000000000000000000FE07000016
:1035B00000000000FE070000000000000000000006
:1035C00000000000000000000000000000000000FB
:1035D00004000800100020004000800000010002EC
:1035E00000040002000180004000200010000800DC
:1035F00004000000000000000000000000000000C7
:103600000000E0031806040C040C0C0C0C0C000762
:10361000800140004000400000000000E000E000A9
:10362000E0000000000000000000000000000000BA
:10363000E00018030C02CC0564056605A605B60477
:10364000B604B604B604B602E4010C040C02180376
:10365000F00000000000000000000000000000007A
:103660000000600060005000D000900090008800D2
:1036700088010801F801040304030402020202069F
:103680000F0F00000000000000000000000000001C
:103690000000FE008C030C030C030C030C038C01D4
:1036A000FC000C030C020C060C060C060C060C03AA
:1036B000FE0100000000000000000000000000000B
:1036C0000000E00318030C060C04040406000600C6
:1036D000060006000600060006040C040C0218038F
:1036E000F0000000000000000000000000000000EA
:1036F00000007F008C010C030C030C060C060C066A
:103700000C060C060C060C060C060C030C038C01B4
:103710007F0000000000000000000000000000002A
:103720000000FF0306030604060406008600860068
:10373000FE008600860086000600060406040602D7
:10374000FF03000000000000000000000000000077
:103750000000FF0306030604060406008600860038
:10376000FE008600860086000600060006000600B1
:103770001F0000000000000000000000000000002A
:103780000000F00018010C020C0204020600060002
:1037900006000600C60F060306030C030C031803FD
:1037A000F000000000000000000000000000000029
:1037B00000000F0F060606060606060606060606A3
:1037C000FE070606060606060606060606060606A0
:1037D0000F0F0000000000000000000000000000CB
:1037E0000000FC036000600060006000600060009A
:1037F00060006000600060006000600060006000C9
:10380000FC030000000000000000000000000000B9
:103810000000F807C000C000C000C000C000C00029
:10382000C000C000C000C000C000C000C000C00098
:10383000C000C60066003C00000000000000000060
:103840000000CF038601C6004600260016003600A1
:103850002E006E004600C6008600860106010603A3
:103860008F070000000000000000000000000000C2
:1038700000001F0006000600060006000600060005
:1038800006000600060006000600060406040602FE
:10389000FF03000000000000000000000000000026
:1038A00000000707860386038E038E034E034E0334
:1038B0004A035A035A033A03320332033203120310
:1038C000870700000000000000000000000000006A
:1038D00000008E0F0C021C021C023402340264022F
:1038E00064024402C40284028403840304030403C4
:1038F0001F020000000000000000000000000000A7
:103900000000F00098010C030C02060606060606ED
:10391000060606060606060606060C020C039801B5
:10392000F0000000000000000000000000000000A7
:103930000000FF0006030606060606060606060643
:103940008603FE00060006000600060006000600CC
:103950001F00000000000000000000000000000048
:103960000000F00098010C030C020606060606068D
:10397000060606060606060676064C02CC039801E5
:10398000F0008007000300000000000000000000BD
:103990000000FF01060306060606060606060603E5
:1039A000FE004600C60086008601060306030606E2
:1039B0000F0E0000000000000000000000000000EA
:1039C0000000F8020C030602060206000E003C008E
:1039D000F800E003800300070206020606060C0357
:1039E000F0010000000000000000000000000000E6
:1039F0000000FE076204610861086000600060006A
:103A000060006000600060006000600060006000B6
:103A1000F8010000000000000000000000000000AD
:103A200000001E070C020C020C020C020C020C021D
:103A30000C020C020C020C020C020C020C0218010B
:103A4000F000000000000000000000000000000086
:103A500000000F070602040104010C010C0188009C
:103A6000880098009800500050007000300020003E
:103A70002000000000000000000000000000000026
:103A80000000F70E62044204460446046402640225
:103A9000E402E4029C029C019801980188018800DC
:103AA000880000000000000000000000000000008E
:103AB00000009E070C01080118019000B000600092
:103AC000200060006000D00090008801080104031D
:103AD0008E07000000000000000000000000000051
:103AE00000000F0F060404020C0208011801B800C0
:103AF000B000700060006000600060006000600066
:103B0000F8010000000000000000000000000000BC
:103B10000000FC070C020603020180018000400047
:103B20004000200020001000180008040C040402CB
:103B3000FE0300000000000000000000E003200081
:103B40002000200020002000200020002000200075
:103B50002000200020002000200020002000200065
:103B600020002000E0030000000000000000000032
:103B700004000400080008001000100010002000DD
:103B8000200040004000C0008000800000010001D3
:103B90000002000200020004000000007C0040005F
:103BA0004000400040004000400040004000400015
:103BB0004000400040004000400040004000400005
:103BC000400040007C000000000060009000080100
:103BD00000000000000000000000000000000000E5
:103BE00000000000000000000000000000000000D5
:103BF00000000000000000000000000000000000C5
:103C000000000000000000000000000000000000B4
:103C100000000000000000000000000000000000A4
:103C2000000000000000FF0F00000000180060000E
:103C30000000000000000000000000000000000084
:103C40000000000000000000000000000000000074
:103C50000000000000000000000000000000000064
:103C6000000000000000000000000000F0010C0354
:103C70000C030003E0031C030E03060306038E0B74
:103C80007C0E0000000000000000000000000000AA
:103C900008000E000C000C000C000C00CC013C03D2
:103CA0001C060C060C060C060C060C060C021C036B
:103CB000E40100000000000000000000000000001F
:103CC000000000000000000000000000F0008C0177
:103CD0008C01860106000600060006020C020C019B
:103CE000F0000000000000000000000000000000E4
:103CF0000002C003000300030003000378038C03E9
:103D00000C030603060306030603060304038C07DD
:103D1000780100000000000000000000000000002A
:103D2000000000000000000000000000E001180397
:103D300008020C060C06FC070C000C001804180204
:103D4000E001000000000000000000000000000092
:103D50000000C0036006300630003000FE01300075
:103D600030003000300030003000300030003000D3
:103D7000FC01000000000000000000000000000046
:103D8000000000000000000000000000F007D8065E
:103D90008C018C018C019801F8000C00FC00CC0314
:103DA000060306038E03F800000000000000000078
:103DB00008000E000C000C000C000C00EC011C03B1
:103DC0000C030C030C030C030C030C030C030C037B
:103DD0009E0700000000000000000000000000003E
:103DE0000000600060000000000040007C006000F7
:103DF00060006000600060006000600060006000C3
:103E0000FC030000000000000000000000000000B3
:103E10000000C001C001000000000001F0018001AD
:103E2000800180018001800180018001800180018A
:103E300080018001CC007C00000000000000000038
:103E400008000E000C000C000C000C008C038C0011
:103E50008C004C006C005C008C008C010C010C038D
:103E60009E070000000000000000000000000000AD
:103E700040007C0060006000600060006000600046
:103E80006000600060006000600060006000600032
:103E9000FC03000000000000000000000000000023
:103EA0000000000000000000000000003707EE06E0
:103EB00066066606660666066606660666066606A2
:103EC000FF0F0000000000000000000000000000E4
:103ED000000000000000000000000000EE011C03D4
:103EE0000C030C030C030C030C030C030C030C035A
:103EF0009E0700000000000000000000000000001D
:103F0000000000000000000000000000F000980128
:103F10000C03060606060606060606060C030C0338
:103F2000F0000000000000000000000000000000A1
:103F3000000000000000000000000000EE011C0373
:103F40000C060C060C060C060C060C060C031C03D7
:103F5000EC010C000C003E0000000000000000001E
:103F600000000000000000000000000078028C0348
:103F70000C030603060306030603060304038C036F
:103F8000780300030003C0070000000000000000E9
:103F90000000000000000000000000009F03580621
:103FA000380618001800180018001800180018002B
:103FB000FF00000000000000000000000000000002
:103FC000000000000000000000000000F0031C03DF
:103FD0000C020C023800F000C003040304038C033D
:103FE000FC010000000000000000000000000000D4
:103FF000000000002000200030003000FE013000F2
:10400000300030003000300030003000300230022C
:10401000E0010000000000000000000000000000BF
:104020000000000000000000000008028E030C03E6
:104030000C030C030C030C030C030C030C039C0774
:1040400078010000000000000000000000000000F7
:104050000000000000000000000000001E070C022D
:104060000801080118019000B000B0006000600075
:104070002000000000000000000000000000000020
:10408000000000000000000000000000F70E6204C5
:10409000460464026402EC029C01980198019801B4
:1040A0000800000000000000000000000000000008
:1040B000000000000000000000000000BC07180124
:1040C0001001B00060006000E000900008010803EB
:1040D0009E0700000000000000000000000000003B
:1040E0000000000000000000000000009E07080122
:1040F0000801080190009000B000600060006000BE
:104100002000200024001C0000000000000000002F
:10411000000000000000000000000000FC0184011D
:10412000C4004400600020003000180208020C03A4
:10413000FC010000000000000000000000038000FF
:1041400080008000800080008000800080004000AF
:1041500020004000800080008000800080008000FF
:10416000800080000003000040004000400040004C
:10417000400040004000400040004000400040003F
:10418000400040004000400040004000400040002F
:104190004000400040004000000000000C00100003
:1041A000100010001000100010001000100020007F
:1041B000400020001000100010001000100010003F
:1041C000100010000C00000000001C002204C204BB
:1041D000800300000000000000000000000000005C
:1041E00000000000000000000000000000000000CF
:1041F00000000000000000000000000000000000BF
:1042000000000000000000000000000000000000AE
:10421000000000000000000000000000000000009E
:10422000000000000000000000000000000000008E
:10423000000000000000000000000000000000007E
:104240000000C001C001C001C001C001C001C00127
:1042500080008000800080008000800080000000DE
:104260000000000000008001C003C00380010000C6
:104270000000000000000000000000000000E01C42
:10428000E01CF01E700E38071803080184000000BF
:10429000000000000000000000000000000000001E
:1042A000000000000000000000000000000000000E
:1042B00000000000000000000000000000000000FE
:1042C0000000000020102010201020102010FE7F81
:1042D000FE7F1008100810081008100810081008B9
:1042E000FE7FFE7F08040804080408040804000098
:1042F00000000000000000000000000000000000BE
:1043000000010001C007601910311831183918393F
:1043100038017001E001C0038007000F001D003963
:1043200000311C311C310C310C11180DE00700015B
:10433000000100010000000000000000000000007B
:10434000000000001C1036186308630C630463044B
:10435000630263026301361D9C37802280634063E1
:10436000406320632063306310221836081C00006D
:10437000000000000000000000000000000000003D
:1043800000000000F00098018C018C018C018C0170
:104390008C00CC007800183E1C08360832086304F4
:1043A0006304C304C303834306438E26781C0000C2
:1043B00000000000000000000000000000001C00E1
:1043C0003C003C003000300010000C0006000000F3
:1043D00000000000000000000000000000000000DD
:1043E00000000000000000000000000000000000CD
:1043F000000000000000000000000000000000407D
:10440000002000100008000C000400060003000358
:104410000003800180018001800180018001800112
:10442000800100030003000300060006000C0008E2
:10443000001000200040000000000000000002000A
:10444000040008001000300020006000C000C00020
:10445000C000800180018001800180018001800115
:104460008001C000C000C00060006000300010008B
:10447000080004000200000000000000000000002E
:104480000000000000000000000180038003000124
:104490001C713C79783DC0070001C007783D3C792C
:1044A0001C710001800380038001000000000000F7
:1044B00000000000000000000000000000000000FC
:1044C00000000000000000000000000100010001E9
:1044D0000001000100010001FC7F0001000100015A
:1044E00000010001000100010000000000000000C8
:1044F00000000000000000000000000000000000BC
:1045000000000000000000000000000000000000AB
:10451000000000000000000000000000000000009B
:1045200000000000000000001C003C003C003000C7
:10453000300010000C000600000000000000000029
:10454000000000000000000000000000000000006B
:104550000000000000000000FE7F000000000000DE
:10456000000000000000000000000000000000004B
:10457000000000000000000000000000000000003B
:10458000000000000000000000000000000000002B
:10459000000000000000000000000000000000001B
:1045A00000000000000018003C003C001800000063
:1045B00000000000000000000000000000000040BB
:1045C000006000200030001000180008000C0004FB
:1045D000000600020003000180018000C0004000CE
:1045E0006000200030001000180008000C000400DB
:1045F00006000200000000000000000000000000B3
:1046000000000000C007600C301818301830182067
:104610000C600C600C600C600C600C600C600C603A
:104620000C601820183018303018600CC0070000DB
:10463000000000000000000000000000000000007A
:104640000000000000018001F8018001800180016C
:104650008001800180018001800180018001800152
:1046600080018001800180018001C003F81F0000EB
:10467000000000000000000000000000000000003A
:1046800000000000E007101C0818043004300C3053
:104690000C30003000180008000400020001800007
:1046A00040002020102008200430FC1FFC1F0000C8
:1046B00000000000000000000000000000000000FA
:1046C00000000000E003180E0C0C0C180C180C185D
:1046D0000018000C0006C003000E00180010003087
:1046E00000300C300C300C100C18180CE0030000DB
:1046F00000000000000000000000000000000000BA
:1047000000000000000C000E000E000F800E800E56
:10471000400E600E200E100E100E080E040E040E39
:10472000FE7F000E000E000E000E000E000EC07F79
:104730000000000000000000000000000000000079
:1047400000000000F03FF03F1000100010000800D3
:104750000800C807280C1818081000300030003076
:1047600000300C300C3004180418080CF003000062
:104770000000000000000000000000000000000039
:1047800000000000800FC01020301030180018000A
:1047900008000C008C0F6C183C301C600C600C6026
:1047A0000C600C601860182030306018C0070000E2
:1047B00000000000000000000000000000000000F9
:1047C00000000000F83FF83F1C100C080408040427
:1047D00000040002000200010001000180008000CE
:1047E0008000C000C000C000C000C000C0000000C9
:1047F00000000000000000000000000000000000B9
:1048000000000000E007300C18180C300C300C30A1
:104810001C3038187008E007B007180E0C1C06385A
:1048200006300630063006300C18180CE003000085
:104830000000000000000000000000000000000078
:1048400000000000E00318040C080C1806100630E5
:1048500006300630063006380C3C1836F031003091
:104860000018001800180C0C0C060C03F0010000D6
:104870000000000000000000000000000000000038
:104880000000000000000000000000000000000028
:1048900000008001C003C003800100000000000090
:1048A0000000000000008001C003C0038001000080
:1048B00000000000000000000000000000000000F8
:1048C00000000000000000000000000000000000E8
:1048D0000000C000C0000000000000000000000058
:1048E00000000000000000000000C000C0008000C8
:1048F00080004000400000000000000000000000B8
:1049000000000020001000080004000600038001E1
:10491000C0006000300018000C001800300060007B
:10492000C000800100030006000400080010002001
:104930000000000000000000000000000000000077
:104940000000000000000000000000000000000067
:104950000000FE7F00000000000000000000FE7F5D
:104960000000000000000000000000000000000047
:104970000000000000000000000000000000000037
:10498000000004000800100020006000C00080014A
:1049900000030006000C001800300018000C000690
:1049A00000038001C0006000200010000800040027
:1049B00000000000000000000000000000000000F7
:1049C0000000C0073018083008600C601C601C60D4
:1049D0001C600030001C0006000180008000800088
:1049E0008000000000008001C003C00380010000BF
:1049F00000000000000000000000000000000000B7
:104A000000000000C0076018103018200C2F8C4DDB
:104A1000864CC64CC64C664C664466446626662682
:104A20006615CC1C0C40082018303018C007000058
:104A30000000000000000000000000000000000076
:104A400000000001C001C001C0014001600320035B
:104A5000200320033006100610061006F80F080C7D
:104A6000080C080C0C0C0418041806181F7C000015
:104A70000000000000000000000000000000000036
:104A800000000000FE07181C1838183018301830C5
:104A900018301818180CF807181818301820186053
:104AA000186018601860186018301818FE0F0000A1
:104AB00000000000000000000000000000000000F6
:104AC00000000000C0276038103018200C400C4057
:104AD00004000600060006000600060006000600A8
:104AE00006000C400C400C2018303018C0070000A5
:104AF00000000000000000000000000000000000B6
:104B000000000000FE03180E181818301830183076
:104B100018601860186018601860186018601860D5
:104B200018601830183018101818180EFE030000FE
:104B30000000000000000000000000000000000075
:104B400000000000FE3F18301820186018401800C0
:104B500018081808180CF80F180C1808180818006E
:104B6000180018001840184018201830FE3F0000A8
:104B70000000000000000000000000000000000035
:104B800000000000FE7F1870184018C01880180040
:104B9000181018101818F81F1818181018101800E6
:104BA0001800180018001800180018007E000000F7
:104BB00000000000000000000000000000000000F5
:104BC00000000000C013701C101018100C200C20E6
:104BD00004000600060006000600060006FC06307B
:104BE00006300C300C30183018303008C007000088
:104BF00000000000000000000000000000000000B5
:104C0000000000003F7E0C180C180C180C180C1833
:104C10000C180C180C180C18FC1F0C180C180C187D
:104C20000C180C180C180C180C180C183F7E0000EF
:104C30000000000000000000000000000000000074
:104C400000000000F81F80018001800180018001C8
:104C5000800180018001800180018001800180014C
:104C6000800180018001800180018001F81F000027
:104C70000000000000000000000000000000000034
:104C800000000000E07F00060006000600060006A7
:104C900000060006000600060006000600060006E4
:104CA00000060006000600060006000600060006D4
:104CB0000E060E038E01FC00000000000000000044
:104CC000000000007E7C1818180818041806180246
:104CD000180198019801D801B8033803180718067D
:104CE000180E180C181C1818183018307EFC00000C
:104CF00000000000000000000000000000000000B4
:104D0000000000007E0018001800180018001800AD
:104D100018001800180018001800180018001800D3
:104D2000180018001840184018201830FE3F0000E6
:104D30000000000000000000000000000000000073
:104D4000000000001FF81C381C381C381C3C343490
:104D5000343434343436743264326432643264311C
:104D6000C431C431C431C430C43084309FFC00002D
:104D70000000000000000000000000000000000033
:104D8000000000001F7C1C103C1034103410741004
:104D90006410E410C410C4118411841304130417A4
:104DA0000416041E041C041C041C04181F18000014
:104DB00000000000000000000000000000000000F3
:104DC00000000000C003300C181808100C300C3024
:104DD00006600660066006600660066006600660A3
:104DE00006600C200C3008101818300CC0030000AE
:104DF00000000000000000000000000000000000B3
:104E000000000000FE0F18181830186018601860B5
:104E10001860186018301818F80F180018001800DB
:104E20001800180018001800180018007E00000074
:104E30000000000000000000000000000000000072
:104E400000000000C003300C18180C100C300C20AF
:104E50000660066006600660066006600660066022
:104E60000660E4612C331C321816300EC007004C6B
:104E7000007C00380000000000000000000000007E
:104E800000000000FE07181C1838183018301830C1
:104E900018301818180CF807980318031807180684
:104EA0001806180E180C180C181C18187E7800001C
:104EB00000000000000000000000000000000000F2
:104EC00000000000E027303818300C200C200C00C7
:104ED0000C0018007800E003800F001E00380070FE
:104EE000006004600460086018303818C80F0000C3
:104EF00000000000000000000000000000000000B2
:104F000000000000FC3F8C218461824182418001CD
:104F10008001800180018001800180018001800189
:104F2000800180018001800180018001E007000094
:104F30000000000000000000000000000000000071
:104F4000000000003F7C0C100C100C100C100C101A
:104F50000C100C100C100C100C100C100C100C1071
:104F60000C100C100C100C1008083804E0030000A2
:104F70000000000000000000000000000000000031
:104F8000000000003EF818201820182030103010C3
:104F900030103010600860086008E00CC004C004E5
:104FA000C00480038003800380030001000100002F
:104FB00000000000000000000000000000000000F1
:104FC00000000000DFF38661862186218C210C2100
:104FD0008C238C138C138C134C1358125816580EA8
:104FE000380E380E380E300C100410041004000077
:104FF00000000000000000000000000000000000B1
:10500000000000007E3E18083808300430047002AA
:105010006002E001C001C00180018003400340073D
:1050200020062006100C100C081808183E7C000002
:105030000000000000000000000000000000000070
:10504000000000007E7C1C10181018083008300C7E
:10505000700460046002C002C002C00180018001CF
:10506000800180018001800180018001E007000053
:105070000000000000000000000000000000000030
:1050800000000000F83F18180818040C040E000671
:105090000007000380038001C001C000E000600041
:1050A00070003000382018201C100C18FE1F000063
:1050B0000000000000000000000000000000C03FF1
:1050C00040004000400040004000400040004000E0
:1050D00040004000400040004000400040004000D0
:1050E00040004000400040004000400040004000C0
:1050F0004000C03F00000000000000000000000071
:1051000000000800180018001000300020006000A7
:1051100060004000C00080008001800100010003A9
:105120000002000600060004000C00080018001829
:105130000010003000200000000000000000FC0310
:10514000000200020002000200020002000200024F
:10515000000200020002000200020002000200023F
:10516000000200020002000200020002000200022F
:105170000002FC03000000000000000000008007A7
:10518000C006200810100000000000000000000011
:10519000000000000000000000000000000000000F
:1051A00000000000000000000000000000000000FF
:1051B00000000000000000000000000000000000EF
:1051C00000000000000000000000000000000000DF
:1051D00000000000000000000000000000000000CF
:1051E00000000000000000000000000000000000BF
:1051F000000000000000FFFF000000000000780039
:10520000C0000001000000000000000000000000DD
:10521000000000000000000000000000000000008E
:10522000000000000000000000000000000000007E
:10523000000000000000000000000000000000006E
:10524000000000000000000000000000000000005E
:105250000000F00318060C0C0C0C000C800F700CF6
:105260001C0C0C0C060C060C064C0C4FF8380000FD
:10527000000000000000000000000000000000002E
:10528000000010001E001800180018001800180078
:105290001800180FD8183830386018601860186077
:1052A000186018601860182038307818C807000097
:1052B00000000000000000000000000000000000EE
:1052C00000000000000000000000000000000000DE
:1052D0000000C007700C181818180C180C000C00EF
:1052E0000C000C000C20182018103008C00700001B
:1052F00000000000000000000000000000000000AE
:1053000000000010001E00180018001800180018F7
:105310000018E01B301C181818180C180C180C1862
:105320000C180C180C180818181C307AE00900002A
:10533000000000000000000000000000000000006D
:10534000000000000000000000000000000000005D
:105350000000C007300C181808100C300C30FC3F4F
:105360000C000C000C00182018107018C00700006A
:10537000000000000000000000000000000000002D
:1053800000000000003E80C380C0C0C0C000C0005C
:10539000C000FC1FC000C000C000C000C000C000B2
:1053A000C000C000C000C000C000C000F80F000076
:1053B00000000000000000000000000000000000ED
:1053C00000000000000000000000000000000000DD
:1053D0000000C077306C101818181818181810181A
:1053E000300CF00718001800F00FF03F08700C6048
:1053F0000C600C603838E00F000000000000000076
:10540000000010001E0018001800180018001800F6
:105410001800980FD8183830183018301830183055
:105420001830183018301830183018307EFC000052
:10543000000000000000000000000000000000006C
:1054400000000000800380038003000000000000D3
:105450000001F8018001800180018001800180014C
:10546000800180018001800180018001F81F00001F
:10547000000000000000000000000000000000002C
:105480000000000000380038003800000000000074
:105490000010801F001800180018001800180018CD
:1054A000001800180018001800180018001800183C
:1054B0000018180C1806F00300000000000000009F
:1054C000000010001E001800180018001800180036
:1054D0001800183E180C1806180318019801D80176
:1054E000380318071806180C181C18187E7C0000C2
:1054F00000000000000000000000000000000000AC
:1055000000000001F801800180018001800180011C
:105510008001800180018001800180018001800183
:10552000800180018001800180018001F81F00005E
:10553000000000000000000000000000000000006B
:10554000000000000000000000000000000000005B
:105550000800EE1C9C338C318C318C318C318C31B9
:105560008C318C318C318C318C318C31DE7B000074
:10557000000000000000000000000000000000002B
:10558000000000000000000000000000000000001B
:1055900010001E0FD8183830183018301830183056
:1055A0001830183018301830183018307EFC0000D1
:1055B00000000000000000000000000000000000EB
:1055C00000000000000000000000000000000000DB
:1055D0000000C007701C103018300C600C600C60AC
:1055E0000C600C600C60183018303018C0070000D8
:1055F00000000000000000000000000000000000AB
:10560000000000000000000000000000000000009A
:1056100010009E0F58183830182018601860186055
:10562000186018601860183038307818980718001B
:105630001800180018007E000000000000000000A4
:10564000000000000000000000000000000000005A
:105650000000C023303C183818300C300C300C30AF
:105660000C300C300C3008301838303CE03300304F
:1056700000300030003000FC00000000000000009E
:10568000000000000000000000000000000000001A
:1056900060007E3C60666061E000E00060006000E9
:1056A000600060006000600060006000FE070000B5
:1056B00000000000000000000000000000000000EA
:1056C00000000000000000000000000000000000DA
:1056D0000000E02730381830182018007000E00370
:1056E000800F001C043004300C301C18EC0F00003C
:1056F00000000000000000000000000000000000AA
:105700000000000000000000800080008000C00059
:10571000E000FC1FC000C000C000C000C000C0000E
:10572000C000C000C000C020C0208011000F0000D9
:105730000000000000000000000000000000000069
:105740000000000000000000000000000000000059
:1057500010201E3C1830183018301830183018300F
:105760001830183018301830183830F4E0130000B2
:105770000000000000000000000000000000000029
:105780000000000000000000000000000000000019
:1057900000007E3C181818083808300430047002E5
:1057A00060026002E001C001C001C0008000000092
:1057B00000000000000000000000000000000000E9
:1057C00000000000000000000000000000000000D9
:1057D0000000DFF78E630C238C238C23981398131F
:1057E00058165816700E700E700E2004200400001B
:1057F00000000000000000000000000000000000A9
:105800000000000000000000000000000000000098
:105810000000FC3E70087004E004C002C001800378
:10582000800340076006200C100C18183E7E000014
:105830000000000000000000000000000000000068
:105840000000000000000000000000000000000058
:1058500000007E7C181818083008300830046004F6
:105860006004C002C002C00280018001800180008B
:10587000800080004C003C000000000000000000A0
:105880000000000000000000000000000000000018
:105890000000FC1F0C0C040E0406000380038001B2
:1058A000C000E0007020302038301C18FC1F0000C1
:1058B00000000000000000000000000000000030B8
:1058C00000080004000400040004000400040004B4
:1058D000000400040004000280010002000400042F
:1058E0000004000400040004000400040004000498
:1058F0000004000800300000000100010001000168
:10590000000100010001000100010001000100018F
:10591000000100010001000100010001000100017F
:10592000000100010001000100010001000100016F
:1059300000010001000100010000000000000C0057
:105940001000200020002000200020002000200067
:1059500020002000200040008001400020002000A6
:105960002000200020002000200020002000200037
:10597000200010000C00000000003800C400864029
:1059800002610022001C0000000000000000000076
:105990000000000000000000000000000000000007
:1059A00000000000000000000000000000000000F7
:1059B0000000000000000000D6D0200020002000E1
:1059C000FE03220222022202FE0322022000200005
:1059D0002000BEB0FC010401FC010401FC01200018
:1059E000FF070401FC01200024013202D4B0FE07AD
:1059F0000204FA0402040204FE05520452044A0599
:105A000086050204FE07B5E710001000FF01110132
:105A10001101FF0111011101FF0111041004E00740
:105A2000D7D30000FC018000400020002000FF07C9
:105A300020002000200020003800D6D08000800008
:105A400080008000FC1F8410841084108410841057
:105A5000FC1F84108000800080008000BEB0F80F22
:105A60000808F80F0808F80F8000FF7F0000F80F03
:105A700008080808F80F80008410A2204000D4B065
:105A80000000FE3F0220F22702200220FA2F2221EE
:105A900022212221122912290A2E0220FE3F022051
:105AA000B5E7800080008000FC1F84108410841003
:105AB000FC1F841084108410FC1F845080408040A0
:105AC000007FD7D30000FE1F000800040002800101
:105AD0008000FF7F800080008000800080008000C8
